:060159000109B8010A4093
:08014F00C2A1C2A08E80D2A063
:02015700002284
:1000D100D2A1C2A2C2A0D2A0E58030E70CC2A0AFDB
:0B00E1000B050BEFD3940A40EDC2A00A
:0100EC0022F1
:0D013500AE071200D1C2A212014FC2A022DB
:0D014200AE071200D1D2A212014FC2A022BE
:10010900EF7005C2A4C2A322BF0105C2A4D2A322D3
:08011900BF0204D2A4C2A3221C
:10008F00E4FF1201097DB8AF051201357F4012015F
:10009F0035E4FCE4FF1201420CBC40F70DBDC0E794
:0100AF00222E
:100121007F3F1201357FC01201357FB81201357F43
:040131004002013552
:1000B0001200D1D2A2D2A17580FFD2A0AF80C2A07F
:1000C0001200D1D2A2D2A17580FFD2A0AF80C2A06F
:0100D000220D
:1000ED0012012112008F7F01120109AF0912013592
:0C00FD00AF0A1201357F0112014280FEA3
:03000000020003F8
:0C000300787FE4F6D8FD75810B02004AFE
:10000F000200EDE493A3F8E493A34003F68001F21A
:10001F0008DFF48029E493A3F85407240CC8C333F2
:10002F00C4540F4420C8834004F456800146F6DFC1
:10003F00E4800B0102040810204080900159E47EF7
:10004F00019360BCA3FF543F30E509541FFEE493B6
:10005F00A360010ECF54C025E060A840B8E493A37D
:10006F00FAE493A3F8E493A3C8C582C8CAC583CAA8
:10007F00F0A3C8C582C8CAC583CADFE9DEE780BE60
:01015F00009F
:00000001FF
