:1003A80020202500000000000000000000000000E0
:1003B8000000000000000000000000000000000035
:0F03C80000000001210101220001230101240096
:10000300C2B0C2B1C2B2C2B3E4F580F590F5A0228A
:10032800C2B2C2B3E521B4010BC2B1D2B0852290EA
:100338007425800FC2B0D2B1E52233333354F8F5B7
:1003480090742D2522F8E6F580AF220522EFB40738
:0F0358000EE4F522AF210521EFB4020375210158
:010367002273
:10036800C2B0C2B1E523B4010BC2B3D2B28524A096
:100378007435800FC2B2D2B3E52433333354F8F561
:10038800A0743D2524F8E6F580AF240524EFB407D2
:0F0398000EE4F524AF230523EFB4020375230110
:0103A7002233
:10023F00EDC3941050047E0180027E00EFC3941032
:10024F0050047C0180027C00EC5E6033EF131313CB
:10025F00541FFEEF5407FFED131313541FFCED54FF
:10026F0007FDEC25E02E75F008A42DFE7401A807FC
:0F027F00088002C333D8FCFF74252EF8E64FF633
:01028E00224D
:10028F00EDC3941050047E0180027E00EFC39410E2
:10029F0050047C0180027C00EC5E6033EF1313137B
:1002AF00541FFEEF5407FFED131313541FFCED54AF
:1002BF0007FDEC25E02E75F008A42DFE74FEA807AF
:0F02CF00088002C333D8FCFF74252EF8E65FF6D3
:0102DE0022FD
:100192001203DBE4FDFF12023FE4FD7F0112023F86
:1001A2007D01E4FF12023F7D09E4FF12023FE4FDFC
:1001B200FF12028FE4FD7F0912023F7D097F0912BF
:1001C200023F1200037E037F287B027A00E4FDFCDB
:1001D2001201377E037F687B027A007D017C001268
:0A01E200013712001D1201EC80FB32
:0303D700015A00C8
:1001EC00E4F508E50875F007A4244BF8E6D3940071
:1001FC004032E50875F007A42445F8E6FE08E6AAA7
:10020C0006F9120013E50875F007A4244BF816E55F
:10021C000875F007A42449F8E6FE08E64E7005AF11
:10022C00081202DF0508E508C3940340B61200204B
:03023C00020019A4
:040137008E088F0996
:10013B00E4FFEF75F007A42445F8E6F58308E645E0
:10014B00836009EFC3940350030F80E6BF0306756A
:10015B005A017F0322EF75F007A42445F8A608087F
:10016B00A609EF75F007A42447F8A60408A605EF27
:10017B0075F007A42449F8A60208A603EF75F0074B
:06018B00A4244BF8E4F689
:01019100224B
:1002DF00EF75F007A42445F8E6FC08E64C700775A7
:1002EF005A02D2008002C200EF75F007A42445F82D
:1002FF00E4F608F6EF75F007A42447F8E4F608F6DD
:10030F00EF75F007A42449F8E4F608F6EF75F00747
:08031F00A4244BF8E4F6A2004F
:0103270022B3
:0100200022BD
:0400190043870122F6
:1003DB00E4F508AF081202DF0508E508C3940340F3
:1003EB00F2E4F55A75C804F5C975CDF875CBF875F7
:0903FB00CC3075CA30D2ADD2CA73
:0104040022D5
:03001D00D2AF223D
:03002B000200BA16
:1000BA00C0E0C0F0C0D075D000C000C004C005C008
:0100CA00072E
:1000CB00C2CFE4FFEF75F007A42445F8E6FC08E681
:1000DB004C6046EF75F007A42447F8E6FC08E64CA5
:1000EB007028EF75F007A4244BF806EF75F007A402
:1000FB002449F8E6FC08E6FD4C601EEF75F007A4FA
:10010B002447F8A60408A605800FEF75F007A42472
:0D011B0047F808E616187001160FBF03A77D
:0F012800D007D005D004D000D0D0D0F0D0E03236
:0300000002002ECD
:0C002E00787FE4F6D8FD75815D02007556
:060013008A838982E47378
:10003A00020192E493A3F8E493A34003F68001F249
:10004A0008DFF48029E493A3F85407240CC8C333C7
:10005A00C4540F4420C8834004F456800146F6DF96
:10006A00E4800B01020408102040809003A8E47E7B
:10007A00019360BCA3FF543F30E509541FFEE4938B
:10008A00A360010ECF54C025E060A840B8E493A352
:10009A00FAE493A3F8E493A3C8C582C8CAC583CA7D
:1000AA00F0A3C8C582C8CAC583CADFE9DEE780BE35
:0103DA000022
:00000001FF
