:100000000201D7EC4480FF120011EBC4540F44806E
:10001000FFAD07C2A2C2A0120659C2A27F017E0094
:1000200002066A43870122D2AF22220202E28F3AFD
:100030008B3CC3E53C953AF53EC3E53D9DF53FD38A
:10004000E53E648094805008E53F648094804012CF
:10005000C3E53E648094804026D3E53F648094806D
:10006000501D853C40853A3C85403A853D408D3D5C
:10007000AD40C3E53C953AF53EC3E53D9DF53FC334
:10008000E53E648094805014853C40853A3C854030
:100090003AC3E53C953AF53ED2018002C201C3E580
:1000A0003F6480F8E53E6480984004D2008002C23C
:1000B00000300004AF3E8002AF3FEF3395E0FEC357
:1000C000E49FF582E49EF583AA3AA905EAD3953C1C
:1000D0005071E9953D506C300109E53A253CC39AD1
:1000E000FF8002AF02AD01120268300004AF3F8012
:1000F00002AF3EEF3395E0FEEF25E0FFEE33FEEF7B
:100100002582F582EE3583F583D3E5829400E5837D
:100110006480948050093000030A80B00980AD0AE1
:1001200009300004AF3E8002AF3FEF3395E0FEEFB1
:1001300025E0FFEE33FEC3E5829FF582E5839EF561
:1001400083808922AF1874072FF8E624FE60151407
:10015000601B14602124037028740C2FF8E6647F60
:10016000701F801A740C2FF8E67016801174112F0E
:10017000F8E6700D800874112FF8E6B43F03751986
:1001800001E5197051FFEFC39518E49517504774B6
:10019000082FF8E624FE600E14600F146013240389
:1001A0007014740D8006740D800974122FF8168077
:1001B0000574122FF806E51824FFFDE51734FFFC3F
:1001C000EF6D7001EC600C74092FF8E6FE74082FD7
:1001D000F8A6060F80B022787FE4F6D8FD7581443A
:1001E00002021E020593E493A3F8E493A34003F6EE
:1001F0008001F208DFF48029E493A3F85407240C6B
:10020000C8C333C4540F4420C8834004F45680014B
:1002100046F6DFE4800B01020408102040809006BF
:100220001BE47E019360BCA3FF543F30E509541FDB
:10023000FEE493A360010ECF54C025E060A840B84F
:10024000E493A3FAE493A3F8E493A3C8C582C8CACD
:10025000C583CAF0A3C8C582C8CAC583CADFE9DEA0
:10026000E780BEE5002500FDAC05AB07EBC39400BD
:10027000406FEBD3947F5069ECC394004063ECD3A0
:10028000943F505D7541807542007F36120011EC3D
:10029000C39420400874E02CFC74802BFBEB540FBB
:1002A000FFE542AE41A807088005CEC313CE13D8A0
:1002B000F9F5428E411200031206748F4312067440
:1002C000AD07E5414DF543120674EF4542F5441282
:1002D0000003AF431206A1AF441206A17F30120003
:1002E0001122C0E0C0F0C0D075D000C000C004C072
:1002F00005C007C2CFE4FFEF75F007A42421F8E69C
:10030000FC08E64C6046EF75F007A42423F8E6FCF1
:1003100008E64C7028EF75F007A42427F806EF755F
:10032000F007A42425F8E6FC08E6FD4C601EEF75F6
:10033000F007A42423F8A60408A605800FEF75F0A3
:1003400007A42423F808E616187001160FBF03A7A8
:10035000D007D005D004D000D0D0D0F0D0E0328F7C
:100360003B8D3C8B3D8A3E893F12068C8F41E53B9D
:10037000B40105754080801CE53BB40205754090D2
:100380008012E53BB403057540888008E53BB40462
:1003900003754098E53C2540F540FF120011E4FC50
:1003A000ECC395415018AB3D053FE53FAA3E7002B6
:1003B000053E14F91204C1FF1206A10C80E2228E40
:1003C0003A8F3BE4FFEF75F007A42421F8E6F583AC
:1003D00008E645836009EFC3940350030F80E6BF2E
:1003E00003067536017F0322EF75F007A42421F878
:1003F000A63A08A63BEF75F007A42423F8A6040844
:10040000A605EF75F007A42425F8A60208A603EFB9
:1004100075F007A42427F8E4F62220B012AF187470
:10042000062FF8E66402604574072FF87601222053
:10043000B112AF1874062FF8E66401603074072F0C
:10044000F876022220B212AF1874062FF8E6640480
:10045000601B74072FF876032220B311AF187406BF
:100460002FF8E66403600674072FF8760422E4F59B
:100470003AE53A75F007A42427F8E6D39400403211
:10048000E53A75F007A42421F8E6FE08E6AA06F985
:10049000120507E53A75F007A42427F816E53A7522
:1004A000F007A42425F8E6FE08E64E7005AF3A12E0
:1004B000050D053AE53AC3940340B612002A02003E
:1004C00023BB010689828A83E0225002E722BBFE19
:1004D00002E32289828A83E49322BB010CE582290C
:1004E000F582E5833AF583E0225006E92582F8E6B5
:1004F00022BBFE06E92582F8E222E58229F582E5A3
:10050000833AF583E493228A838982E473EF75F05A
:1005100007A42421F8E6FC08E64C7007753602D2E1
:10052000008002C200EF75F007A42421F8E4F60869
:10053000F6EF75F007A42423F8E4F608F6EF75F05B
:1005400007A42425F8E4F608F6EF75F007A424279D
:10055000F8E4F6A200221205C3E5197021F53AC3AA
:10056000E53A9518E495175029740D253AF8E6FFF9
:100570007412253AF8E6FD120268053A80E1E519A1
:10058000B4010F7BFF7A0679BF7D027F0212035F01
:1005900080FE221205F112063B1206B37E017F4453
:1005A0007BF47A01E4FDFC1203BF7E057F567B14C9
:1005B0007A00E4FDFC1203BF12002712046E12043D
:1005C0001A80F87F36120011E4FCE4FBEB4480FF54
:1005D000120011EC4480FF120011E4FF1206A1E4A6
:1005E000FF1206A10BBB20E40CBC10DE7F30020022
:1005F00011E4F53AAF3A12050D053AE53AC3940312
:1006000040F2E4F53675C804F5C975CDF875CBF838
:1006100075CC3075CA30D2ADD2CA22013600050879
:100620000202020202050D3C3D3E3F400512202021
:1006300020202002170005011900007F3012001150
:100640007F0C1200117F011200117F021200117F36
:10065000041200117F01020011C2A17F017E00126D
:10066000066A8D80D2A27F0A7E00EF1F70011E14E1
:100670004E70F7227580FFC2A2D2A0D2A17F017E68
:100680000012066A120664AF80C2A222E4FFFE12C4
:1006900004C1600C0FEF70010E09E970F20A80EFDF
:1006A00022AD07C2A2D2A0120659C2A27F017E00CB
:1006B00002066A85163DAB11AD12AF0D02002ED7B2
:0806C000B2C7BDB6F8CBC000C3
:00000001FF
