:04000300021A0000DD
:100373001203DB12047B1203AA7E027F837B147AAF
:1003830000E4FDFC1202281204C21202D7051BE589
:100393001BAE1A7002051A1464C84E70ED1204B332
:0703A300E4F51AF51B80E3ED
:0804A900C2A1C2A08E80D2A006
:0204B100002227
:10046300EF7005C2A4C2A322BF0105C2A4D2A32276
:08047300BF0204D2A4C2A322BF
:10044700D2A1C2A2C2A0D2A0E58030E70CC2A0AF61
:0B0457001D051DEFD3940A40EDC2A06C
:010462002277
:0D048F00AE07120447C2A21204A9C2A022A7
:0D049C00AE07120447D2A21204A9C2A0228A
:10047B007F3F12048F7FC012048F7FB812048F7FCF
:04048B004002048F98
:10040500E4FF1204637DB8AF0512048F7F40120428
:100415008FE4FCE4FF12049C0CBC40F70DBDC0E763
:0104250022B4
:10042600120447D2A2D2A17580FFD2A0AF80C2A08B
:10043600120447D2A2D2A17580FFD2A0AF80C2A07B
:010446002293
:0201CA00AE077E
:1001CC00EEC394805055EDC39440504FEEC41313BE
:1001DC00540304FF120463EE543FFCED1313135449
:1001EC001FFBED5407FDEB44B8FF12048FEC4440A9
:1001FC00FF12048F120426AA07AF057401A8070882
:10020C008002C333D8FC4202EB44B8FF12048FECDB
:0B021C004440FF12048FAF0212049C4C
:0102270022B4
:1003DB00E4F51CAF1C12032A051CE51CC394034057
:1003EB00F2E4F53675C804F5C975CDF875CBF8751B
:0903FB00CC3075CA30D2ADD2CA73
:0104040022D5
:0304C200D2AF2294
:03002B0002014D82
:10014D00C0E0C0F0C0D075D000C000C004C005C074
:01015D00079A
:10015E00C2CFE4FFEF75F007A42421F8E6FC08E611
:10016E004C6046EF75F007A42423F8E6FC08E64C35
:10017E007028EF75F007A42427F806EF75F007A492
:10018E002425F8E6FC08E6FD4C601EEF75F007A48A
:10019E002423F8A60408A605800FEF75F007A42403
:0D01AE0023F808E616187001160FBF03A70E
:0F01BB00D007D005D004D000D0D0D0F0D0E032A3
:03000700013600BF
:1002D700E4F51CE51C75F007A42427F8E6D3940081
:1002E7004032E51C75F007A42421F8E6FE08E6AACB
:1002F70006F91204BCE51C75F007A42427F816E5D7
:100307001C75F007A42425F8E6FE08E64E7005AF35
:100317001C12032A051CE51CC3940340B61204C52E
:03032700020027AA
:040228008E1C8F1D7C
:10022C00E4FFEF75F007A42421F8E6F58308E64512
:10023C00836009EFC3940350030F80E6BF03067578
:10024C0036017F0322EF75F007A42421F8A61C08C1
:10025C00A61DEF75F007A42423F8A60408A605EF45
:10026C0075F007A42425F8A60208A603EF75F0077D
:06027C00A42427F8E4F6BB
:010282002259
:10032A00EF75F007A42421F8E6FC08E64C7007757F
:10033A003602D2008002C200EF75F007A42421F829
:10034A00E4F608F6EF75F007A42423F8E4F608F6B5
:10035A00EF75F007A42425F8E4F608F6EF75F00720
:08036A00A42427F8E4F6A20028
:010372002268
:0104C5002214
:0400270043870122E8
:10000A0005080202020202050D3C3D3E3F40051270
:0C001A0020202020200217000501190002
:1003AA00E4F51C120405E519701FC3E51C9518E451
:1003BA009517501C051C740D251CF8E6FF741225B0
:1003CA001CF8E6FD1201CA80E1E519B4010280FEBB
:0103DA002200
:1002830020B012AF1874062FF8E6640260457407B5
:100293002FF876012220B112AF1874062FF8E66406
:1002A30001603074072FF876022220B212AF18745F
:1002B300062FF8E66404601B74072FF876032220E8
:1002C300B311AF1874062FF8E66403600674072FA2
:0402D300F876042293
:10002E00AF1874072FF8E624FE601314601B1460DB
:10003E002124037028740C2FF8E67021801C740C98
:10004E002FF8E6647F7016801174112FF8E6700D8C
:10005E00800874112FF8E6B43F03751901E5197085
:10006E0051FFEFC39518E49517504774082FF8E623
:10007E0024FE600E14600F14601324037014740DAC
:10008E008006740D800974122FF816800574122FD5
:10009E00F806E51824FFFDE51734FFFCEF6D70013F
:1000AE00EC600C74092FF8E6FE74082FF8A6060F04
:0200BE0080B010
:0100C000221D
:0904B3006390FF12002E0203AA5F
:030000000200C13A
:0C00C100787FE4F6D8FD75813902010853
:0604BC008A838982E473CB
:1000CD00020373E493A3F8E493A34003F68001F2D3
:1000DD0008DFF48029E493A3F85407240CC8C33334
:1000ED00C4540F4420C8834004F456800146F6DF03
:1000FD00E4800B0102040810204080900003E47E90
:10010D00019360BCA3FF543F30E509541FFEE493F7
:10011D00A360010ECF54C025E060A840B8E493A3BE
:10012D00FAE493A3F8E493A3C8C582C8CAC583CAE9
:10013D00F0A3C8C582C8CAC583CADFE9DEE780BEA1
:0100260000D9
:00000001FF
