:0304C300017B00BA
:10062C00E4F50AE50A75F007A4246CF8E6D3940007
:10063C004032E50A75F007A42466F8E6FE08E6AA3F
:10064C0006F912001DE50A75F007A4246CF816E5EE
:10065C000A75F007A4246AF8E6FE08E64E7005AFAA
:10066C000A120766050AE50AC3940340B612002A6B
:03067C0002002356
:040527008E0A8F0B9E
:10052B00E4FFEF75F007A42466F8E6F58308E645CB
:10053B00836009EFC3940350030F80E6BF03067576
:10054B007B017F0322EF75F007A42466F8A60A0847
:10055B00A60BEF75F007A42468F8A60408A605EF10
:10056B0075F007A4246AF8A60208A603EF75F00736
:06057B00A4246CF8E4F674
:010581002257
:10076600EF75F007A42466F8E6FC08E64C700775FA
:100776007B02D2008002C200EF75F007A42466F85F
:10078600E4F608F6EF75F007A42468F8E4F608F630
:10079600EF75F007A4246AF8E4F608F6EF75F0079B
:0807A600A4246CF8E4F6A200A3
:0107AE002228
:01002A0022B3
:0400230043870122EC
:10082F00E4F50AAF0A120766050AE50AC394034006
:10083F00F2E4F57B75C804F5C975CDF875CBF8757D
:09084F00CC3075CA30D2ADD2CA1A
:01085800227D
:03002700D2AF2233
:03002B0002044686
:10044600C0E0C0F0C0D075D000C000C004C005C078
:01045600079E
:10045700C2CFE4FFEF75F007A42466F8E6FC08E6D0
:100467004C6046EF75F007A42468F8E6FC08E64CF4
:100477007028EF75F007A4246CF806EF75F007A451
:10048700246AF8E6FC08E6FD4C601EEF75F007A449
:100497002468F8A60408A605800FEF75F007A424C2
:0D04A70068F808E616187001160FBF03A7CD
:0F04B400D007D005D004D000D0D0D0F0D0E032A7
:0404C6000208000028
:1005820012082F1200037E077FAF7B027A00E4FD80
:10059200FC1205277E077FEF7B027A007D017C003B
:1005A2001205277E037FBC7B217A00E4FDFC120545
:1005B2002712002712062C1205D80509E509AE08F4
:1005C2007002050814FFBE01EBBF90E8E4F508F5E0
:0605D2000912002E80DE7C
:1004CA0020202500000000000000000000000000BD
:1004DA000000000000000000000000000000000012
:0F04EA0000000001210101220001230101240073
:10000300C2B0C2B1C2B2C2B3E4F580F590F5A0228A
:1007AF00C2B2C2B3E521B4010BC2B1D2B08522905F
:1007BF007425800FC2B0D2B1E52233333354F8F52C
:1007CF0090742D2522F8E6F580AF220522EFB407AD
:0F07DF000EE4F522AF210521EFB40203752101CD
:0107EE0022E8
:1007EF00C2B0C2B1E523B4010BC2B3D2B28524A00B
:1007FF007435800FC2B2D2B3E52433333354F8F5D6
:10080F00A0743D2524F8E6F580AF240524EFB40746
:0F081F000EE4F524AF230523EFB4020375230184
:01082E0022A7
:10067F00EDC3941050047E0180027E00EFC39410EE
:10068F0050047C0180027C00EC5E6033EF13131387
:10069F00541FFEEF5407FFED131313541FFCED54BB
:1006AF0007FDEC25E02E75F008A42DFE7401A807B8
:0F06BF00088002C333D8FCFF74252EF8E64FF6EF
:0106CE002209
:10071B00EDC3941050047E0180027E00EFC3941051
:10072B0050047C0180027C00EC5E602EEF131313EF
:10073B00541FFEEF5407FFED131313541FFCED541E
:10074B0007FDEC25E02E75F008A42D2425F8E6FE18
:0A075B00A807088002C313D8FC139E
:010765002271
:090013007F207825E4F608DFFCEB
:01001C0022C1
:1006CF001E3262424262321E3C1818181818183C2B
:1006DF007E06067E7E06067E181818181818001853
:1006EF0081819999999999663C1818181818183C8E
:1006FF00C7CFCBDBD3F3E3E318181818181800187B
:0C070F0000080A05040F08080000050C93
:1004F90008450202000000000000084D000111112A
:1005090011111111085500000000000000000263DC
:0D0519000002016500065D01010101010104
:1005D80020B412AF6474432FF8E664026045744493
:1005E8002FF876012220B512AF6474432FF8E66421
:1005F80001603074442FF876022220B612AF64747A
:10060800432FF8E66404601B74442FF87603222015
:10061800B711AF6474432FF8E66403600674442F7F
:04062800F87604223A
:10002E00D200C20185640A7444250AF8E624FE70E3
:10003E00030200E71470030201811470030202131D
:10004E00240360030202A7744C250AF8E6FF70032E
:10005E000202A4EF14FF7454250AF8E6FD12071BE2
:10006E0040030202A7E4F50B744C250AF8E614FFD0
:10007E00E50B90070F936F704FE50B90071593FFED
:10008E007454250AF8E66F703F745D250BF8E4F69C
:10009E00744C250AF8E614FFAE64744D2EF8A607CC
:1000AE007454250AF8E6FF74552EF8A60774442EEC
:1000BE00F8E6FF74452EF8A6070564E564700205A0
:1000CE0063C2007565028008050BE50B6406709827
:1000DE002000030202A70202A4744C250AF8E6FFD0
:1000EE00B40F030202A4EF04FF7454250AF8E6FDD0
:1000FE0012071B40030202A7E4F50B744C250AF805
:10010E00E62401FFE433FEE50B90070F936F7001B9
:10011E00EE704FE50B90071593FF7454250AF8E621
:10012E006F703F745D250BF8E4F6744C250AF8E603
:10013E0004FFAE64744D2EF8A6077454250AF8E633
:10014E00FF74552EF8A60774442EF8E6FF74452E5C
:10015E00F8A6070564E56470020563C200756502C2
:10016E008008050BE50B640670912000030202A7C0
:10017E000202A47454250AF8E6FE70030202A47467
:10018E004C250AF8E6FFEE14FD12071B400302028F
:10019E00A7E4F50BE50B90070F93FF744C250AF8B7
:1001AE00E66F70507454250AF8E614FFE50B9007BD
:1001BE0015936F703F745D250BF8E4F6744C250AA9
:1001CE00F8E6FFAE64744D2EF8A6077454250AF8AF
:1001DE00E614FF74552EF8A60774442EF8E6FF7445
:1001EE00452EF8A6070564E56470020563C2007526
:1001FE0065028008050BE50B64067098200003026B
:10020E0002A70202A47454250AF8E6FEB40F0302F4
:10021E0002A4744C250AF8E6FFEE04FD12071B50EB
:10022E0078E4F50BE50B90070F93FF744C250AF855
:10023E00E66F70577454250AF8E62401FFE433FE86
:10024E00E50B900715936F7001EE703F745D250BF3
:10025E00F8E4F6744C250AF8E6FFAE64744D2EF8F9
:10026E00A6077454250AF8E604FF74552EF8A6075F
:10027E0074442EF8E6FF74452EF8A6070564E5646F
:10028E0070020563C2007565028008050BE50B64FC
:10029E00067091300003756501E565705DF50AAF76
:1002AE000A7E00C3EF9564EE956350757445250A7A
:1002BE00F8E624FE600E14600F146014240370160A
:1002CE00744D8006744D800A7455250AF816800602
:1002DE007455250AF806E56424FFFDE56334FFFC3A
:1002EE00ED6F7002EC6E600E7446250AF8E6FF7430
:1002FE0045250AF8A607050A80A5E5656402702162
:10030E00F50A745D250AF8E6B40107D201E4F56535
:10031E008007050AE50AB406E9A201B35003756524
:01032E0004CA
:01032F0022AB
:1003BC00120013E5657047F50AC3E50A9564E495E8
:1003CC00635015744D250AF8E6FF7455250AF8E6B6
:1003DC00FD12067F050A80E1E4F50A745D250AF832
:1003EC00E66011E50A90070F93FFE50A9007159355
:1003FC00FD12067F050AE50AC3940640DE22E56578
:10040C00B40119E4F50AE50A9006CF93FF7425258B
:10041C000AF8A607050AE50AB420EB22E565B40440
:10042C0018E4F50AE50A9006EF93FF7425250AF8FF
:09043C00A607050AE50AB420EB4D
:010445002294
:03000000020330C8
:0C033000787FE4F6D8FD75817E0203772B
:06001D008A838982E4736E
:10033C00020582E493A3F8E493A34003F68001F250
:10034C0008DFF48029E493A3F85407240CC8C333C2
:10035C00C4540F4420C8834004F456800146F6DF91
:10036C00E4800B01020408102040809004C3E47E5A
:10037C00019360BCA3FF543F30E509541FFEE49386
:10038C00A360010ECF54C025E060A840B8E493A34D
:10039C00FAE493A3F8E493A3C8C582C8CAC583CA78
:1003AC00F0A3C8C582C8CAC583CADFE9DEE780BE30
:0105260000D4
:00000001FF
