:03027F00015A0021
:10037F00E4F55EE55E75F007A4244BF8E6D3940030
:10038F004032E55E75F007A42445F8E6FE08E6AABC
:10039F0006F9120023E55E75F007A4244BF816E565
:1003AF005E75F007A42449F8E6FE08E64E7005AF27
:1003BF005E12046D055EE55EC3940340B61200291C
:0303CF000205C064
:040224008E5E8F5FFC
:10022800E4FFEF75F007A42445F8E6F58308E645F2
:10023800836009EFC3940350030F80E6BF0306757C
:100248005A017F0322EF75F007A42445F8A65E083B
:10025800A65FEF75F007A42447F8A60408A605EFE3
:1002680075F007A42449F8A60208A603EF75F0075D
:06027800A4244BF8E4F69B
:01027E00225D
:10046D00EF75F007A42445F8E6FC08E64C70077517
:10047D005A02D2008002C200EF75F007A42445F89D
:10048D00E4F608F6EF75F007A42447F8E4F608F64D
:10049D00EF75F007A42449F8E4F608F6EF75F007B8
:0804AD00A4244BF8E4F6A200C0
:0104B5002224
:0100290022B4
:0405C000438701224A
:10057C00E4F55EAF5E12046D055EE55EC394034068
:10058C00F2E4F55A75C804F5C975CDF875CBF87554
:09059C00CC3075CA30D2ADD2CAD0
:0105A5002233
:0305C400D2AF2291
:03002B000201A728
:1001A700C0E0C0F0C0D075D000C000C004C005C01A
:0101B7000740
:1001B800C2CFE4FFEF75F007A42445F8E6FC08E693
:1001C8004C6046EF75F007A42447F8E6FC08E64CB7
:1001D8007028EF75F007A4244BF806EF75F007A414
:1001E8002449F8E6FC08E6FD4C601EEF75F007A40C
:1001F8002447F8A60408A605800FEF75F007A42485
:0D02080047F808E616187001160FBF03A78F
:0F021500D007D005D004D000D0D0D0F0D0E03248
:04028200021D000059
:1002D50012057C1205A67E047FFC7B027A00E4FDF4
:1002E500FC1202247E057F3C7B027A007D017C00A6
:1002F5001202247E047FB67B217A00E4FDFC120203
:10030500241205C412037F12032B051EE51EAE1D24
:100315007002051D14FFBE01EBBFF4E8E4F51DF501
:060325001E12002E80DE16
:100286002020250000000000000000000000000003
:100296000000000000000000000000000000000058
:0F02A600000000012101012200012301012400B9
:1005A600C2B0C2B1C2B2C2B3E4F580F590F5A022E2
:1004FC00C2B2C2B3E521B4010BC2B1D2B085229015
:10050C007425800FC2B0D2B1E52233333354F8F5E1
:10051C0090742D2522F8E6F580AF220522EFB40762
:0F052C000EE4F522AF210521EFB4020375210182
:01053B00229D
:10053C00C2B0C2B1E523B4010BC2B3D2B28524A0C0
:10054C007435800FC2B2D2B3E52433333354F8F58B
:10055C00A0743D2524F8E6F580AF240524EFB407FC
:0F056C000EE4F524AF230523EFB402037523013A
:01057B00225D
:1003D200EDC3941050047E0180027E00EFC394109E
:1003E20050047C0180027C00EC5E6033EF13131337
:1003F200541FFEEF5407FFED131313541FFCED546B
:1004020007FDEC25E02E75F008A42DFE7401A80767
:0F041200088002C333D8FCFF74252EF8E64FF69E
:0104210022B8
:10042200EDC3941050047E0180027E00EFC394104D
:1004320050047C0180027C00EC5E602EEF131313EB
:10044200541FFEEF5407FFED131313541FFCED541A
:1004520007FDEC25E02E75F008A42D2425F8E6FE14
:0A046200A807088002C313D8FC139A
:01046C00226D
:0905B6007F207825E4F608DFFC43
:0105BF002219
:100003001E3262424262321E3C1818181818183CFD
:100013007E06067E7E06067E181818181818001825
:1002B5000608020202020202060E000102030405FC
:0F02C5000614000000000000021A0006011C00D1
:10032B0020B412AF1B74062FF8E664026045740705
:10033B002FF876012220B512AF1B74062FF8E66456
:10034B0001603074072FF876022220B612AF1B74AF
:10035B00062FF8E66404601B74072FF8760322203F
:10036B00B711AF1B74062FF8E66403600674072FF2
:04037B00F8760422EA
:10002E00851B5E7407255EF8E624FE60261460408C
:10003E0014605924037074740D255EF8E6FF700287
:10004E008066EF14FF7413255EF8E6FD120422504D
:10005E005A8055740D255EF8E6FFB40F028049EF05
:10006E0004FF7413255EF8E6FD120422503D80381D
:10007E007413255EF8E6FE7002802D740D255EF871
:10008E00E6FFEE14FD1204225021801C7413255E2F
:10009E00F8E6FEB40F028010740D255EF8E604FF3C
:1000AE00EE04FD1204225003751C01E51C705DF573
:1000BE005EAF5E7E00C3EF951BEE951A504E740830
:1000CE00255EF8E624FE600E14600F1460142403FF
:1000DE007016740E8006740E800A7414255EF8165F
:1000EE0080067414255EF806E51B24FFFDE51A3420
:1000FE00FFFCED6F7002EC6E600E7409255EF8E683
:0C010E00FF7408255EF8A607055E80A5BA
:01011A0022C2
:1004B6001205B6E51C7021F55EC3E55E951BE49555
:1004C6001A5032740E255EF8E6FF7414255EF8E6BF
:1004D600FD1203D2055E80E1E51CB40118E4F55E69
:1004E600E55E90000393FF7425255EF8A607055E7A
:0504F600E55EB420EBFF
:0104FB0022DE
:0300000002011BDF
:0C011B00787FE4F6D8FD75815F02016278
:060023008A838982E47368
:100127000202D5E493A3F8E493A34003F68001F217
:1001370008DFF48029E493A3F85407240CC8C333D9
:10014700C4540F4420C8834004F456800146F6DFA8
:10015700E4800B010204081020408090027FE47EB7
:10016700019360BCA3FF543F30E509541FFEE4939D
:10017700A360010ECF54C025E060A840B8E493A364
:10018700FAE493A3F8E493A3C8C582C8CAC583CA8F
:10019700F0A3C8C582C8CAC583CADFE9DEE780BE47
:0102D4000029
:00000001FF
